:020000040800F2
:100000009006002089010008DD0400082304000890
:10001000950400083B020008FB0E000800000000E9
:10002000000000000000000000000000350700088C
:100030003F02000800000000B90500082108000880
:10004000A3010008A3010008A3010008A301000800
:10005000A3010008A3010008A3010008A3010008F0
:10006000A3010008A3010008A3010008A3010008E0
:10007000A3010008A3010008A3010008A3010008D0
:10008000A3010008A3010008A3010008A3010008C0
:10009000A3010008A3010008A3010008A3010008B0
:1000A000A3010008A3010008A3010008A3010008A0
:1000B000A301000885080008A3010008A3010008A7
:1000C000A3010008A3010008A3010008A301000880
:1000D000A3010008010C0008210C0008A30100087E
:1000E000A3010008A3010008A301000800F002F822
:1000F00000F03AF80AA090E8000C82448344AAF188
:100100000107DA4501D100F02FF8AFF2090EBAE885
:100110000F0013F0010F18BFFB1A43F0010318473B
:100120002C0F00004C0F0000103A24BF78C878C193
:10013000FAD8520724BF30C830C144BF04680C60ED
:10014000704700000023002400250026103A28BF35
:1001500078C1FBD8520728BF30C148BF0B60704739
:100160001FB51FBD10B510BD00F031F81146FFF7E7
:10017000F7FF00F0C5FE00F04FF803B4FFF7F2FF01
:1001800003BC00F053F800000948804709480047C5
:10019000FEE7FEE7FEE7FEE7FEE7FEE7FEE7FEE737
:1001A000FEE7FEE704480549054A064B7047000094
:1001B00025080008ED0000089000002090060020AF
:1001C00090020020900200207047704770477546EB
:1001D00000F028F8AE4605006946534620F00700B7
:1001E000854618B020B5FFF7DDFFBDE820404FF091
:1001F00000064FF000074FF000084FF0000B21F011
:100200000701AC46ACE8C009ACE8C009ACE8C009DD
:10021000ACE8C0098D4670470446AFF30080204625
:10022000FFF7ABFF004870472C0000200149182061
:10023000ABBEFEE726000200704700BFFEE7704736
:10024000002100E0491C8142FCD3704708B5012120
:10025000142000F0D3F94FF44040ADF80000102016
:100260008DF8030003208DF802006946084800F06D
:1002700045F80320ADF8000010208DF8030003209E
:100280008DF802006946034800F038F808BD000008
:1002900000100140000801400146032901D101205E
:1002A00000E00020062901D1012200E000221043D5
:1002B0000C2901D1012200E000221043182901D1AC
:1002C000012200E000221043302901D1012200E088
:1002D00000221043602901D1012200E000221043D6
:1002E000C02901D1012200E00022104308B10248D8
:1002F00001700148007870471A0000202DE9F04194
:10030000024600250026002000230024002791F843
:1003100003C00CF00F0591F803C00CF0100CBCF1F9
:10032000000F03D091F802C04CEA050591F800C017
:10033000BCF1000F31D0146800202BE04FF0010C0D
:100340000CFA00F3B1F800C00CEA03069E4220D17B
:1003500083004FF00F0C0CFA03F7BC4305FA03FCC3
:100360004CEA040491F803C0BCF1280F06D14FF009
:10037000010C0CFA00FCC2F814C00AE091F803C0AA
:10038000BCF1480F05D14FF0010C0CFA00FCC2F88B
:1003900010C0401C0828D1D31460B1F800C0BCF1D3
:1003A000FF0F34DD546800202EE000F1080C4FF000
:1003B000010808FA0CF3B1F800C00CEA03069E42EB
:1003C00021D183004FF00F0C0CFA03F7BC4305FA60
:1003D00003FC4CEA040491F803C0BCF1280F05D1DA
:1003E00000F1080C08FA0CF8C2F8148091F803C068
:1003F000BCF1480F07D100F1080C4FF0010808FAD2
:100400000CF8C2F81080401C0828CED35460BDE818
:10041000F0810146886880B2704741617047016190
:10042000704700BFFEE7F0B50246A2F11805E9B239
:100430005D18ABB2012505FB03150E1B012707FB59
:100440000655A8B20C46F0BD08B501210C2000F0FD
:10045000D5F8F020ADF8000048208DF80300032007
:100460008DF8020069460948FFF748FF4FF47040D5
:10047000ADF8000048208DF8030003208DF802003D
:1004800069460348FFF73AFF08BD00000008014035
:10049000000C014000BFFEE710B54FF400410C48CE
:1004A000FFF7BBFF4FF480410948FFF7B6FF00217B
:1004B000084800F04FFB02210748FFF7AEFF01217B
:1004C0000548FFF7AAFF0021024800F045FB10BDD8
:1004D0000010014000080040000801407047000083
:1004E00070B5002100230F22C47804B3154C246892
:1004F00004F4E064C4F5E064210AC1F10403CA40D5
:10050000447804FA03F184781440214309010E4C25
:100510000678A155047804F01F050124AC40057845
:100520006D11AD0005F1E025C5F8004109E0047842
:1005300004F01F050124AC40044D0678761145F8FF
:10054000264070BD0CED00E000E400E080E100E03A
:1005500002490143024A1160704700000000FA0599
:100560000CED00E010B5044601210648FFF755FFE9
:1005700002210448FFF753FF2146034800F0ECFA3C
:1005800010BD0000000801400008004010B50446FE
:100590004FF480410648FFF740FF4FF40041044804
:1005A000FFF73DFF2146034800F0D4FA10BD0000DC
:1005B00000100140000800407047000029B1064AC1
:1005C000D2690243044BDA6104E0034AD2698243F0
:1005D000014BDA61704700000010024029B1064A61
:1005E00012690243044B1A6104E0034A1269824310
:1005F000014B1A61704700000010024029B1064A01
:1006000092690243044B9A6104E0034A926982436F
:10061000014B9A61704700000010024029B1064A60
:10062000D2680243044BDA6004E0034AD268824392
:10063000014BDA60704700000010024030B5002125
:100640000022002400232D4D6D6805F00C0121B11E
:10065000042905D0082923D105E0294D056022E0B1
:10066000274D05601FE0254D6D6805F47012234D80
:100670006D6805F48034022505EB92421CB9214DCA
:10068000554305600BE01D4D6D6805F400351DB147
:100690001C4D5543056002E0194D5543056002E0CD
:1006A000174D056000BF00BF144D6D6805F0F001E7
:1006B0000909154D6B5C0568DD4045600F4D6D689F
:1006C00005F4E061090A104D6B5C4568DD4085600A
:1006D0000A4D6D6805F46051C90A0B4D6B5C4568A5
:1006E000DD40C560054D6D6805F44041890B074D3F
:1006F0006B5CC568B5FBF3F5056130BD00100240C9
:1007000000127A0000093D000400002014000020BF
:1007100010B500240548FFF77CFE00F0F004044803
:10072000FFF777FE44EA1034204610BD0008014070
:10073000000C0140704710B500F002F810BD000039
:100740000CB50020019000903348006840F48030E0
:100750003149086000BF3048006800F40030009064
:100760000198401C0190009818B90198B0F5A06F4D
:10077000F1D12948006800F4003010B10120009048
:1007800001E0002000900098012843D12348006830
:1007900040F01000214908600846006820F003007E
:1007A00008600846006840F0020008601A48406887
:1007B000194948600846406848600846406840F467
:1007C000806048600846406820F47C104860084615
:1007D000406840F4E81048600846006840F08070C7
:1007E000086000BF0C48006800F000700028F9D0D5
:1007F0000948406820F003000749486008464068FF
:1008000040F00200486000BF0348406800F00C0060
:100810000828F9D10CBD0000001002400020024061
:100820007047000010B51348006840F001001149FE
:10083000086008464068104908400E49486008466C
:1008400000680E4908400B4908600846006820F41B
:10085000802008600846406820F4FE0048604FF49D
:100860001F008860FFF767FF4FF0006004490860D1
:1008700010BD0000001002400000FFF8FFFFF6FE70
:1008800008ED00E010B50121104800F0B2F8E0B129
:1008900001210E4800F09EF8FFF73AFF044620467B
:1008A000FFF7FAFC04462046FFF7BDFD0849088023
:1008B000098801F5FA6188B2FFF768FE04490988E2
:1008C000C1F5FA6188B2FFF74DFE10BD000400408B
:1008D000000000207FB505460C4601210220FFF7ED
:1008E0006DFEADF80850ADF804400020ADF80A00E8
:1008F000ADF8060001A90E4800F030F901221146BA
:100900000B4800F07FF81D208DF8000000208DF8C6
:10091000010003208DF8020001208DF803006846D5
:10092000FFF7DEFD0121024800F057F87FBD00000F
:100930000004004030B589B005460C460121042072
:10094000FFF73CFE01210820FFF758FEC020ADF85C
:10095000200018208DF8230003208DF8220008A91C
:100960001A48FFF7CBFC0120ADF8200010208DF8CD
:10097000230003208DF8220008A91448FFF7BEFCCD
:10098000ADF81850ADF814400020ADF81A00ADF8DD
:10099000160005A90E4800F0E1F86020ADF804004B
:1009A0000120ADF806000020ADF80A00ADF80C00FB
:1009B00001A9074800F030F801A9054800F078F8CF
:1009C0000121034800F009F809B030BD000C0140D6
:1009D00000080040CA430282704721B1028842F0F9
:1009E0000102028004E002884FF6FE731A40028082
:1009F000704702460020138A0B400BB1012000E033
:100A0000002070471AB183890B43838102E08389F8
:100A10008B4383817047000070B5002400220023BF
:100A2000058C4FF6FE7635400584028C8388048B56
:100A30004FF68F752C40B51E2C400D882C43751E2B
:100A40002A400D892A434D882A43144DA8420BD0D1
:100A5000134DA84208D0134DA84205D0124DA8420C
:100A600002D0124DA84213D14FF6F7752A404D8996
:100A70002A434FF6FB752A408D882A434FF6FF65BF
:100A80002B404FF6FF552B408D892B43CD892B43AF
:100A900083800483CD888586028470BD002C01404C
:100AA0000034014000400140004401400048014042
:100AB00070B5002400220023058C4FF6EF763540F8
:100AC0000584028C8388048B48F6FF752C404FF612
:100AD000FF452C400D884FF6FF7606EA05252C438E
:100AE0004FF6DF752A400D8906EA05152A434D8821
:100AF00006EA05152A43154DA84202D0144DA84216
:100B00001DD14FF67F752A404D894FF6FF7606EAD4
:100B100005152A434FF6BF752A408D8806EA05154C
:100B20002A434FF6FF352B404FF2FF752B408D893E
:100B300006EA85052B43CD8906EA85052B4383808C
:100B40000483CD880587028470BD0000002C01401D
:100B50000034014081867047018770470022028877
:100B60001D4B98420ED01D4B98420BD0B0F1804FD8
:100B700008D01B4B984205D01A4B984202D01A4B12
:100B8000984204D14FF68F731A404B881A43174B83
:100B9000984207D0164B984204D04FF6FF431A40B4
:100BA000CB881A4302808B8883850B8803850A4B88
:100BB00098420BD0094B984208D00E4B984205D072
:100BC0000D4B984202D00D4B984201D10B7A03860F
:100BD0000123838270470000002C01400034014053
:100BE0000004004000080040000C004000100040DD
:100BF0000014004000400140004401400048014012
:100C000010B540F22551054800F0B2F820B140F28D
:100C10002551024800F048F810BD0000003801409E
:100C200070B50026002540F225511C4800F0A0F8C0
:100C3000002831D040F22551184800F035F8174807
:100C400000F052F9C4B2164800780C2809D01548B3
:100C500013490978445412480078401C1049087020
:100C600005E01048047300200D4908700126012E8C
:100C700012D1002508E00B48094A1278815C074828
:100C800000F037F9681CC5B20D2DF4DB0548807AF9
:100C9000332801D1FFF700FC70BD00000044004084
:100CA000030000201C00002001F40072B2F5007F58
:100CB00000D100BFCA430280704721B1828942F44B
:100CC0000052828104E082894DF6FF731A408281CE
:100CD0007047000010B504462048844209D1012124
:100CE0008803FFF79BFC00214FF48040FFF796FC40
:100CF00032E01B48844209D101214804FFF76EFC11
:100D000000214FF40030FFF769FC25E015488442CC
:100D100009D101218804FFF761FC00214FF48020F4
:100D2000FFF75CFC18E01048844209D10121C80497
:100D3000FFF754FC00214FF40020FFF74FFC0BE0BD
:100D40000A48844208D101210805FFF747FC002129
:100D50004FF48010FFF742FC10BD00000038014046
:100D60000044004000480040004C0040005000405B
:100D700070B50246002400230025002040F66A16C4
:100D8000B14200D100BFC1F3421501F01F0301269B
:100D900006FA03F3012D02D19689334006E0022DB5
:100DA00002D1168A334001E0968A33400C120126A4
:100DB00006FA04F41688344013B10CB1012000E0A7
:100DC000002070BDF0B50346002400260025002059
:100DD00040F66A17B94200D100BF1846C1F3421469
:100DE00001F01F06012707FA06F5012C01D10C308E
:100DF00004E0022C01D1103000E014301AB1076871
:100E00002F43076002E00768AF430760F0BD0000B2
:100E10002DE9F04786B005460E460024A24600BFE5
:100E2000A1460027B08900B100BF2F462C8A4CF69E
:100E3000FF700440F08804432C82AC894EF6F31016
:100E40000440B08831890843718908430443AC8168
:100E5000AC8A4FF6FF400440B0890443AC8201A83D
:100E6000FFF7ECFB1F48874202D1DDF810A001E03C
:100E7000DDF80CA0A88900F4004040B10AEBCA00DC
:100E800000EB0A1031684900B0FBF1F807E00AEB0B
:100E9000CA0000EB0A1031688900B0FBF1F8642049
:100EA000B8FBF0F004012009642101FB1089A88936
:100EB00000F4004040B1322000EBC900B0FBF1F07B
:100EC00000F00700044308E0322000EB0910642121
:100ED000B0FBF1F000F00F0004432C8106B0BDE838
:100EE000F08700000038014001468888C0F3080000
:100EF0007047C1F308028280704700BFFEE7000020
:100F0000FFF7A4F9FFF7A0FA4FF4A060FFF720FB6A
:100F10004FF4165000F022F841F63F7141F287304D
:100F2000FFF7D8FC002141F61F40FFF703FD0DE05D
:100F3000FFF7EEFB044621460548FFF7DAFF0548B8
:100F4000FFF77EF955210448FFF7D3FFF0E70000D3
:100F500000440040405489000038014010B586B07C
:100F6000044601214804FFF729FB01210420FFF773
:100F700045FB3348FFF7AEFE4FF40170ADF81400A7
:100F800018208DF8170003208DF8160005A92D48AC
:100F9000FFF7B4F94FF48160ADF8140004208DF828
:100FA000170003208DF8160005A92648FFF7A6F9BB
:100FB00001940020ADF80800ADF80A00ADF80C006F
:100FC000ADF810000C20ADF80E0001A91C48FFF789
:100FD0001FFF01A91C48FFF71BFF26208DF800000A
:100FE00003208DF801008DF8020001208DF8030028
:100FF0006846FFF775FA012240F225511048FFF7C5
:10100000E1FE01210E48FFF758FE25208DF8000073
:1010100003208DF801008DF8020001208DF80300F7
:101020006846FFF75DFA012240F225510648FFF7B6
:10103000C9FE01210448FFF740FE06B010BD0000C4
:101040000044004000080140003801406C100008D6
:10105000000000201C000000280100088810000883
:101060001C00002074060000440100080000180065
:10107000000000000102030401020304060708093E
:0810800002040608000018003C
:04000005080000ED02
:00000001FF
